:020000040800F2
:10000000D815002021020008F5220008372000083A
:10001000F1220008370300085D27000800000000F7
:10002000000000000000000000000000890100083E
:100030005B03000800000000CD01000879230008E0
:100040003B0200083B0200083B0200083B0200089C
:100050003B0200083B0200083B0200083B0200088C
:100060003B0200083B0200083B0200083B0200087C
:100070003B0200083B0200083B0200083B0200086C
:100080003B0200083B0200083B0200083B0200085C
:100090003B0200083B0200083B0200083B0200084C
:1000A0003B0200083B0200083B0200083B0200083C
:1000B0003B0200083B0200086D2400083B020008D8
:1000C0003B0200083B0200083B0200083B0200081C
:1000D0003B0200083B0200083B0200083B0200080C
:1000E0003B0200083B0200083B02000800F002F857
:1000F00000F03AF80AA090E8000C82448344AAF188
:100100000107DA4501D100F02FF8AFF2090EBAE885
:100110000F0013F0010F18BFFB1A43F0010318473B
:10012000F833000018340000103A24BF78C878C1B2
:10013000FAD8520724BF30C830C144BF04680C60ED
:10014000704700000023002400250026103A28BF35
:1001500078C1FBD8520728BF30C148BF0B60704739
:100160001FB51FBD10B510BD00F0AFF81146FFF769
:10017000F7FF02F008FB00F0CDF803B4FFF7F2FF41
:1001800003BC00F0D1F80000224B19680868B0E801
:10019000F00F80F30988BFF36F8F4FF0000080F3FA
:1001A00011884EF00D0E70470000000006480068F0
:1001B000006880F3088862B661B6BFF34F8FBFF363
:1001C0006F8F00DF00BF00BF08ED00E0EFF3098094
:1001D000BFF36F8F0F4B1A6820E9F00F106008B55E
:1001E0004FF0500080F31188BFF34F8FBFF36F8F34
:1001F00002F060FF4FF0000080F31188BDE8084076
:1002000019680868B0E8F00F80F30988BFF36F8FB2
:10021000704700BFC8000020EFF305807047000062
:100220000948804709480047FEE7FEE7FEE7FEE78A
:10023000FEE7FEE7FEE7FEE7FEE7FEE704480549C6
:10024000054A064B7047000015240008ED00000821
:10025000D80F0020D8150020D8110020D811002078
:1002600010B5203AC0F00B80B1E81850203AA0E851
:100270001850B1E81850A0E81850BFF4F5AF5FEA85
:10028000027C24BFB1E81850A0E8185044BF18C938
:1002900018C0BDE810405FEA827C24BF51F8043BDF
:1002A00040F8043B08BF7047D20728BF31F8023B33
:1002B00048BF11F8012B28BF20F8023B48BF00F8C7
:1002C000012B7047704770477047754600F028F85B
:1002D000AE4605006946534620F00700854618B033
:1002E00020B5FFF7ABFFBDE820404FF000064FF010
:1002F00000074FF000084FF0000B21F00701AC465B
:10030000ACE8C009ACE8C009ACE8C009ACE8C00979
:100310008D4670470446AFF300802046FFF72DFF5F
:1003200000487047780F002001491820ABBEFEE757
:1003300026000200704700BFFEE70120704702461A
:100340000120704702460120704701207047034694
:100350000120704703460120704770470120704715
:100360000246012070470246012070470120704775
:100370000346012070470346012070472DE9FC5FCA
:1003800005460C464FF000080026B14600200190BB
:100390008346DB4885420BD0DA48854208D0DA48EC
:1003A000854205D0D948854202D0D948854200D13E
:1003B00003E0CF21D7A002F0E5F9208880B220B178
:1003C00020686FF30F0000B903E0D021D1A002F044
:1003D000D9F9606830B36068012823D060681128BB
:1003E00020D0606802281DD0606812281AD0D84931
:1003F0006068884216D0D7496068884212D0D649D2
:10040000606888420ED0D549606888420AD0D449D5
:100410006068884206D0D3496068884202D060682C
:10042000032800D103E0D121BAA002F0ABF90027E4
:1004300061E1012000FA07F8206800EA0806464555
:100440006FD1AF4885420BD0AE48854208D0AE4848
:10045000854205D0AD48854202D0AD48854200D1E5
:1004600003E0DF21ABA002F08DF9B94A6068811A80
:1004700090426AD00EDC032875D006DC002863D0D9
:10048000012819D002286FD139E0112825D012286F
:10049000F9D147E0B1F5881F5BD006DCB1F5803FAC
:1004A00056D0B1F5801F7AD150E0B1F5001F4ED083
:1004B000B1F5041F73D14DE0E068022805D0E06873
:1004C000012802D0E068032800D103E0E72191A0D1
:1004D00002F058F9E068019062E0E068022805D077
:1004E000E068012802D0E068032800D103E0EE2193
:1004F00088A002F047F9E068001D019050E0E06834
:10050000022805D0E068012802D0E068032800D165
:1005100003E0F5217FA002F035F9E0680830019092
:100520003EE0DDE0E068022805D0E068012802D066
:10053000E068032800D103E0FC2176A002F022F954
:10054000E0680C3001902BE000BF00BF00BF00BF8F
:1005500000BF00BFA06828B1A068012802D0A06831
:10056000022802D106E017E019E040F2091169A063
:1005700002F008F9A06810B9042001900BE0A0680F
:10058000012804D108200190C5F8108003E008205C
:100590000190C5F8148003E00020019000E000BF46
:1005A00000BFFF2E01D8284600E0281D8246FF2EFE
:1005B00001D8B80002E0A7F1080080008346DAF80D
:1005C00000000F2101FA0BF18843019901FA0BF1A8
:1005D0000843CAF80000606800F08050B0F1805F06
:1005E0007ED100BF6048806940F001005E498861AB
:1005F0000846806900F00100009000BF00BF4FEA8C
:10060000B130B90850F82190B807010F0F20884089
:1006100029EA00093A48854201D100200FE0394813
:10062000854201D101200AE03748854201D10220EC
:1006300005E03648854201D1032000E00420B907D7
:10064000090F884040EA09094848B90840F8219054
:10065000606800F48030B0F5803F05D14448006800
:1006600030434349086004E041480068B0434049D2
:100670000860606800F40030B0F5003F07D13C48E6
:10068000001D006830433A49091D086006E03848FB
:10069000001D0068B0433649091D0860606800F419
:1006A0008010B0F5801F07D1314808300068304312
:1006B0002F490831086006E02D4808300068B04333
:1006C0002B4908310860606800F40010B0F5001F85
:1006D00009D127480C300068304325490C3100E02F
:1006E00008E0086006E022480C300068B04320496A
:1006F0000C3108607F1C102FFFF49BAEBDE8FC9FFF
:1007000000080140000C01400010014000140140AD
:10071000001801402E2E2F447269766572732F5394
:10072000544D3332463178785F48414C5F447269AA
:100730007665722F5372632F73746D33326631781E
:10074000785F68616C5F6770696F2E6300000000FE
:1007500000001110000021100000311000001210E4
:10076000000022100000321000100240080001407A
:100770000004014070B506460C461546A0B218B1FB
:10078000200C000400B904E040F2E51108A001F0DB
:10079000F9FF0DB1012D00D104E04FF4F37104A075
:1007A00001F0F0FF0DB1346101E02004306170BD53
:1007B0002E2E2F447269766572732F53544D333247
:1007C000463178785F48414C5F4472697665722F94
:1007D0005372632F73746D3332663178785F68615A
:1007E0006C5F6770696F2E6300000000014800684D
:1007F000704700001000002070B504460026002558
:100800000CB9012070BD78492068884203D077492F
:100810002068884200D104E040F27F1174A001F00A
:10082000B1FF606820B180496068884200D804E068
:100830004FF4C0716EA001F0A5FFA06818B1A068C8
:10084000B0F5804F00D104E040F2811168A001F0C2
:1008500099FFE0686FF3090000B904E04FF4C1713B
:1008600063A001F08FFF2069B0F5804F03D02069AD
:10087000B0F5404F00D104E040F283115CA001F0DC
:1008800081FF606910B16069012800D104E04FF474
:10089000C27157A001F076FFA06920F0FE0000B9F8
:1008A00004E040F2851152A001F06CFFE06910B144
:1008B000E069402800D104E04FF4C3714CA001F07E
:1008C00061FF206A10B1206A802800D104E040F264
:1008D000871147A001F056FF94F83D0028B9002089
:1008E00084F83C00204600F0A5F8242084F83D0060
:1008F0002068006820F001002168086000F018FC02
:1009000005464A48B5FBF0F62068466048496068ED
:10091000884201D8701C07E04FF4967070434FF482
:100920007A71B0FBF1F0401C2168086240496068B0
:1009300088420ED860684000B5FBF0F0C0F30B00B1
:10094000042801D204202DE060684000B5FBF0F0DF
:1009500028E0A06828B9606800EB4000B5FBF0F023
:1009600008E0606800EBC00101EB0010B5FBF0F09F
:1009700040F48040C0F30B0008B9012012E0A068E9
:1009800028B9606800EB4000B5FBF0F008E0606853
:1009900000EBC00101EB0010B5FBF0F040F480402B
:1009A00040F400402168C861D4E907010843216888
:1009B0000860D4E90310084321688860D4E9050180
:1009C00008432168C8602068006840F00100216881
:1009D000086000202064202084F83D00002020636F
:1009E00084F83E0000BF0DE700540040005800406E
:1009F0002E2E2F447269766572732F53544D333205
:100A0000463178785F48414C5F4472697665722F51
:100A10005372632F73746D3332663178785F686117
:100A20006C5F6932632E6300801A060040420F003B
:100A3000A086010010B586B004460F4920688842A0
:100A400017D1C0200290122003900320059002A924
:100A50000A48FFF793FC00BF0948C06940F4001042
:100A60000749C8610846C06900F40010019000BF42
:100A700000BF06B010BD000000540040000C014053
:100A80000010024002480068401C0149086070479D
:100A90001000002010B50848006840F0100006491A
:100AA0000860032000F036F9002000F007F800F09D
:100AB00049F8002010BD00000020024070B588B049
:100AC000044600250026002221461E2000F0B8F82A
:100AD0001E2000F081F800BF1648C06940F00400F5
:100AE0001449C8610846C06900F00400019000BFC5
:100AF00000BF02A903A800F0C7FA00F019FB4500E7
:100B00000D48B5FBF0F0461E0C480D49086040F258
:100B1000E7310B48C160466000210161816000F04F
:100B2000E5FF20B9064801F061F808B070BD01206A
:100B3000FBE700000010024040420F0000080040A8
:100B4000640E002008B500BF2148806940F0010014
:100B50001F4988610846806900F00100009000BFCD
:100B600000BF032000F0D6F8002211466FF00B0002
:100B700000F066F8002211466FF00A0000F060F8FD
:100B8000002211466FF0090000F05AF800221146C9
:100B9000501F00F055F800221146101F00F050F8C9
:100BA00000220F21901E00F04BF800220F21501E52
:100BB00000F046F800BF0748406820F0E0600549B3
:100BC00048600846406840F00070486000BF08BDBB
:100BD000001002400000014010B50446002C00DB6C
:100BE00003E0D02107A001F0CDFD00BF04F01F01FC
:100BF000012088406109890001F1E021C1F800016C
:100C000000BF10BD2E2E2F447269766572732F536C
:100C1000544D3332463178785F48414C5F447269B5
:100C20007665722F5372632F73746D333266317829
:100C3000785F68616C5F636F727465782E63000023
:100C40002DE9F05F80460C4615460027102D00D296
:100C500003E0BC2120A001F095FD102C00D203E0A0
:100C6000BD211DA001F08EFD01F046FB074639466F
:100C700022462B4601F00700C0F1070ABAF1040F23
:100C800002D94FF0040A01E0C0F1070AD14600F191
:100C9000040ABAF1070F02D24FF0000A01E0A0F1F6
:100CA000030AD4464FF0010A0AFA09FAAAF1010A26
:100CB0000AEA020A0AFA0CFA4FF0010B0BFA0CFBD3
:100CC000ABF1010B0BEA030B4AEA0B063146404637
:100CD00001F01AFBBDE8F09F2E2E2F447269766555
:100CE00072732F53544D3332463178785F48414CFC
:100CF0005F4472697665722F5372632F73746D331C
:100D000032663178785F68616C5F636F72746578A2
:100D10002E63000010B50446072C07D0062C05D022
:100D2000052C03D0042C01D0032C00D103E0A42116
:100D300009A001F027FD00BF04F00701154A106863
:100D40004FF6FF021040144A024342EA0120114AC2
:100D5000106000BF10BD00002E2E2F447269766512
:100D600072732F53544D3332463178785F48414C7B
:100D70005F4472697665722F5372632F73746D339B
:100D800032663178785F68616C5F636F7274657822
:100D90002E6300000CED00E00000FA0570B504467B
:100DA0000D46002604B104E040F2CA21A4A001F0DF
:100DB000E9FC207800F0010070B9207800F0020012
:100DC000022809D0207800F00400042804D02078FC
:100DD00000F00800082800D104E040F2CB2198A0E0
:100DE00001F0D0FC1DB1012D01D0022D00D104E095
:100DF0004FF4337192A001F0C5FC9F48006800F0E9
:100E00000700A8420ED29C48006820F00700284343
:100E1000994908600846006800F00700A84201D020
:100E2000012070BD207800F00200022827D1A068C0
:100E3000B8B1A068802814D0A068902811D0A0680C
:100E4000A0280ED0A068B0280BD0A068C02808D079
:100E5000A068D02805D0A068E02802D0A068F028BB
:100E600000D104E040F2E52175A001F08BFC83483D
:100E7000406820F0F000A16808438049486020786D
:100E800000F0010000286BD0606828B1606801287C
:100E900002D06068022800D104E04FF43B7168A0E2
:100EA00001F070FC6068012806D17448006800F405
:100EB000003090B90120B4E76068022806D16F487D
:100EC000006800F0007040B90120AAE76B48006894
:100ED00000F0020008B90120A3E76848406820F04C
:100EE00003006168084365494860FFF77FFC0646D8
:100EF0006068012810D108E0FFF778FC801B41F200
:100F00008831884201D903208BE75C48406800F0B3
:100F10000C000428F0D123E06068022810D108E01A
:100F2000FFF764FC801B41F28831884201D903201D
:100F300077E75248406800F00C000828F0D10FE035
:100F400008E0FFF753FC801B41F28831884201D949
:100F5000032066E74948406800F00C000028F0D103
:100F60004548006800F00700A8420ED942480068D2
:100F700020F007002843404908600846006800F058
:100F80000700A84201D001204BE7207800F00400C0
:100F900004281FD1E06878B1E068B0F5806F0BD00D
:100FA000E068B0F5A06F07D0E068B0F5C06F03D07F
:100FB000E068B0F5E06F00D104E04FF4507120A07C
:100FC00001F0E0FB2D48406820F4E060E168084350
:100FD0002A494860207800F00800082820D12069BC
:100FE00078B12069B0F5806F0BD02069B0F5A06FA3
:100FF00007D02069B0F5C06F03D02069B0F5E06F6D
:1010000000D104E040F247310DA001F0BBFB1B48CA
:10101000406820F46050216940EAC10017494860E7
:1010200000F0A6F815494968C1F30311144A515C50
:10103000C840144908600020FFF740FD0020F0E69A
:101040002E2E2F447269766572732F53544D3332AE
:10105000463178785F48414C5F4472697665722FFB
:101060005372632F73746D3332663178785F6861C1
:101070006C5F7263632E6300002002400010024028
:10108000E03400080C00002070B504460D4604B1A1
:1010900004E040F2BF4113A001F074FB05B104E08D
:1010A0004FF498610FA001F06DFB0F2020601B48EA
:1010B000406800F0030060601848406800F0F000ED
:1010C000A0601648406800F4E060E06013484068A3
:1010D00000F46050C00820611148006800F007006B
:1010E000286070BD2E2E2F447269766572732F535F
:1010F000544D3332463178785F48414C5F447269D1
:101100007665722F5372632F73746D333266317844
:10111000785F68616C5F7263632E63000010024049
:101120000020024001480068704700000C000020C9
:1011300000B5FFF7F7FF04494968C1F30221034AEC
:10114000515CC84000BD000000100240F0340008AF
:1011500000B5FFF7E7FF04494968C1F3C221034A1C
:10116000515CC84000BD000000100240F03400088F
:10117000F0B585B00FF2700C9CE8E01001A8A0E873
:10118000E0101DA52D6800950021002400220023F9
:1011900000201A4D696801F00C05FDB1042D02D044
:1011A000082D1AD101E016481AE001ADC1F38346BB
:1011B000AB5D01F480355DB1104D6D68C5F3404500
:1011C0001DF805400E4DB5FBF4F505FB03F202E0FA
:1011D0000C4D03FB05F2104602E000BF084800BFBB
:1011E00000BF05B0F0BD00000203040506070809B2
:1011F0000A0B0C0D0E0F101001020000001002402F
:1012000000127A0000093D00F8B50446002504B13B
:1012100004E04FF48671F7A001F0B4FA206890B1B1
:10122000207800F0010070B9207800F00200022858
:1012300009D0207800F00800082804D0207800F0B9
:101240000400042800D104E040F20D11E9A001F0EF
:1012500099FA207800F00100002870D0606838B159
:101260006068B0F5803F03D06068B0F5A02F00D172
:1012700004E040F21311DFA001F084FAEB4840686B
:1012800000F00C0004280CD0E848406800F00C0086
:10129000082811D1E548406800F48030B0F5803F5F
:1012A0000AD1E248006800F40030002860D060688D
:1012B00000285DD10120F8BD00BF6068B0F5803F17
:1012C00006D1DA48006840F48030D849086028E048
:1012D000606858B9D548006820F48030D349086068
:1012E0000846006820F4802008601AE06068B0F5C5
:1012F000A02F0BD1CD48006840F48020CB49086076
:101300000846006840F4803008600AE0C74800687A
:1013100020F48030C54908600846006820F4802029
:10132000086000BF606890B1FFF760FA054607E00B
:10133000FFF75CFA401B642802D90320BBE717E0E3
:10134000BA48006800F400300028F1D010E0FFF740
:101350004DFA054606E0FFF749FA401B642801D91B
:101360000320A8E7B148006800F400300028F2D15B
:10137000207800F0020002286BD1206910B12069AA
:10138000012800D104E040F247119AA001F0FAF9D7
:1013900060691F2800D804E04FF4A47195A001F003
:1013A000F1F9A248406800F00C0050B19F48406835
:1013B00000F00C00082818D19C48406800F48030E8
:1013C00098B99A48006800F0020020B1206901280D
:1013D00001D001206FE79548006820F0F8006169AE
:1013E00040EAC1009149086033E02069E8B101207A
:1013F0008F490860FFF7FAF9054606E0FFF7F6F9AE
:10140000401B022801D9032055E78848006800F0F6
:1014100002000028F2D08548006820F0F8006169D9
:1014200040EAC1008149086013E00020804908605B
:10143000FFF7DCF9054606E0FFF7D8F9401B022864
:1014400001D9032037E77948006800F0020000283E
:10145000F2D1207800F00800082838D1A06910B136
:10146000A069012800D104E04FF4C47161A001F02B
:1014700089F9A069B8B101206E490860FFF7B6F993
:10148000054606E0FFF7B2F9401B022801D9032008
:1014900011E76648406A00F002000028F2D00120FF
:1014A00000F046FF13E0002062490860FFF79EF954
:1014B000054606E0FFF79AF9401B022801D90320F0
:1014C000F9E65A48406A00F002000028F2D120787C
:1014D00000F00400042878D10026E06828B1E06814
:1014E000012802D0E068052800D104E040F2B711DD
:1014F00040A001F047F94D48C06900F0805070B934
:1015000000BF4A48C06940F080504849C861084659
:10151000C06900F08050009000BF00BF012646481F
:10152000006800F48070B0B94348006840F48070EF
:1015300041490860FFF75AF9054606E0FFF756F9FA
:10154000401B642801D90320B5E63B48006800F43D
:1015500080700028F2D000BFE068012806D133482F
:10156000006A40F001003149086227E0E06858B99C
:101570002E48006A20F001002C4908620846006AE3
:1015800020F00400086219E0E06805280BD1274824
:10159000006A40F00400254908620846006A40F0ED
:1015A000010008620AE02148006A20F001001F499A
:1015B00008620846006A20F00400086200BFE06884
:1015C000A0B1FFF713F9054609E04FE0FFF70EF968
:1015D000401B41F28831884201D903206BE6134851
:1015E000006A00F002000028F0D036E0FFF7FEF8B5
:1015F00005462CE02E2E2F447269766572732F53A8
:10160000544D3332463178785F48414C5F447269BB
:101610007665722F5372632F73746D33326631782F
:10162000785F68616C5F7263632E63000010024034
:10163000000042428004424200700040FFF7D6F8AA
:10164000401B41F28831884201D9032033E67048BB
:10165000006A00F002000028F0D1012E05D16C488C
:10166000C06920F080506A49C86100BFE06928B1B4
:10167000E069012802D0E069022800D105E040F2CB
:101680005521AFF2900001F07DF8E069002875D097
:101690005F48406800F00C00082870D0E06902281C
:1016A0006ED1206A18B1206AB0F5803F00D105E004
:1016B00040F25E21AFF2C40001F064F8606AB8B392
:1016C000606AB0F5802F33D0606AB0F5002F2FD05C
:1016D000606AB0F5402F2BD0606AB0F5801F27D02C
:1016E000606AB0F5A01F23D0606AB0F5C01F1FD09C
:1016F000606AB0F5E01F1BD0606AB0F5001F17D01C
:10170000606AB0F5101F13D0606AB0F5201F0FD0CB
:10171000606AB0F5301F0BD0606AB0F5401F07D08B
:10172000606AB0F5501F03D0606AB0F5601F00D149
:1017300005E040F25F21AFF2441001F023F80020F1
:1017400034490866FFF752F8054606E0FFF74EF801
:10175000401B022801D90320ADE52D48006800F0A8
:1017600000700028F2D1206AB0F5803F17D1A06840
:1017700018B1A068B0F5003F03D108E045E042E0B1
:101780002CE040F27521AFF2941000F0FBFF2048EE
:10179000406820F40030A16808431D494860D4E93E
:1017A000080108431A49496821F47411084318498B
:1017B0004860012017490866FFF718F8054606E05B
:1017C000FFF714F8401B022801D9032073E51048E5
:1017D000006800F000700028F2D016E000200D49EB
:1017E0000866FFF703F8054606E0FEF7FFFF401B1B
:1017F000022801D903205EE50548006800F000706A
:101800000028F2D101E0012055E5002053E5000059
:10181000001002400000424210B504460CB90120FD
:1018200010BD5C492068884203D05B49206888422B
:1018300000D103E06D2159A000F0A4FF606818B149
:101840006068B0F5827F00D103E06E2153A000F004
:1018500099FFA06838B1A068B0F5806F03D0A06888
:10186000B0F5004F00D103E06F214CA000F08AFFDB
:10187000E068B0F5006F01D0E06800B903E07021C6
:1018800046A000F07FFF206910B12069022800D136
:1018900003E0712141A000F075FF606910B160693B
:1018A000012800D103E072213CA000F06BFFA06989
:1018B000B0F5007F05D0A06918B1A069B0F5802F00
:1018C00000D103E0732135A000F05CFFE069A0B116
:1018D000E069082811D0E06910280ED0E0691828C6
:1018E0000BD0E069202808D0E069282805D0E069FD
:1018F000302802D0E069382800D103E0742127A005
:1019000000F040FF206A10B1206A802800D103E077
:10191000752122A000F036FF0021A16294F8510049
:1019200010B9204600F058F8022084F851002068D1
:10193000006820F0400021680860D4E901010843F4
:10194000E16808432169084361690843218B01F478
:1019500000710843E1690843216A0843A16A08430A
:10196000216808600421A06901EA1040616A084307
:10197000216848602168E06A08612068C06920F435
:1019800000602168C86100206065012084F8510072
:10199000002045E700300140003800402E2E2F4443
:1019A0007269766572732F53544D333246317878AD
:1019B0005F48414C5F4472697665722F5372632FA2
:1019C00073746D3332663178785F68616C5F737001
:1019D000695F65782E63000010B586B00446134930
:1019E0002068884220D100BF1148806940F48050AF
:1019F0000F4988610846806900F48050019000BF5B
:101A000000BFB0200290022003900320059002A99D
:101A10000848FEF7B3FC4020029000200390049099
:101A200002A90448FEF7AAFC06B010BD0030014030
:101A3000001002400008014010B50446042C00D0FC
:101A400004B904E040F2DB110BA000F09BFE042C73
:101A500008D14FF0E020006940F004004FF0E02191
:101A6000086107E04FF0E020006920F004004FF02B
:101A7000E021086110BD00002E2E2F4472697665AA
:101A800072732F53544D3332463178785F48414C4E
:101A90005F4472697665722F5372632F73746D336E
:101AA00032663178785F68616C5F636F72746578F5
:101AB0002E63000070B504462546681EB0F1807F95
:101AC00001D301200FE0681E4FF0E02148610F2193
:101AD0004FF0FF3000F018FC00204FF0E02188614B
:101AE00007200861002070BD7047704710B504469C
:101AF0000CB9012010BD2B49206888420BD020680A
:101B0000B0F1804F07D028492068884203D0274988
:101B10002068884200D103E0D72125A000F032FEE2
:101B2000A06858B1A068102808D0A068202805D067
:101B3000A068402802D0A068602800D103E0D82126
:101B40001BA000F01FFE206938B12069B0F5807F2E
:101B500003D02069B0F5007F00D103E0D92114A0A3
:101B600000F010FEA06910B1A069802800D103E048
:101B7000DA210FA000F006FE94F83D0028B90020FD
:101B800084F83C00204600F02FF8022084F83D0045
:101B9000211D206800F072FC012084F83D00002027
:101BA000A8E70000002C01400004004000080040AD
:101BB0002E2E2F447269766572732F53544D333233
:101BC000463178785F48414C5F4472697665722F80
:101BD0005372632F73746D3332663178785F686146
:101BE0006C5F74696D2E63007047000010B5044689
:101BF0001149206888420BD02068B0F1804F07D08F
:101C00000E492068884203D00D492068884200D1DF
:101C100004E040F25F110BA000F0B4FD2068C06842
:101C200040F001002168C8602068006840F00100B1
:101C300021680860002010BD002C01400004004015
:101C4000000800402E2E2F447269766572732F5360
:101C5000544D3332463178785F48414C5F44726965
:101C60007665722F5372632F73746D3332663178D9
:101C7000785F68616C5F74696D2E6300704710B5A2
:101C8000044620680069C0F34000D8B12068C068ED
:101C9000C0F34000B0B16FF002002168086101207C
:101CA00020772068806900F0030018B12046FFF714
:101CB000E5FF05E0204600F0ADF8204600F0ABF867
:101CC0000020207720680069C0F38000D8B1206828
:101CD000C068C0F38000B0B16FF0040021680861F3
:101CE000022020772068806900F4407018B12046F7
:101CF000FFF7C4FF05E0204600F08CF8204600F016
:101D00008AF80020207720680069C0F3C000D8B1AD
:101D10002068C068C0F3C000B0B16FF0080021684F
:101D20000861042020772068C06900F0030018B122
:101D30002046FFF7A3FF05E0204600F06BF82046A1
:101D400000F069F80020207720680069C0F30010D7
:101D5000D8B12068C068C0F30010B0B16FF01000B7
:101D600021680861082020772068C06900F440706D
:101D700018B12046FFF782FF05E0204600F04AF840
:101D8000204600F048F8002020772068006900F025
:101D9000010058B12068C06800F0010030B16FF058
:101DA000010021680861204600F036F820680069CB
:101DB000C0F3C01058B12068C068C0F3C01030B183
:101DC0006FF08000216808612046FFF78DFE2068D3
:101DD0000069C0F3801058B12068C068C0F380105B
:101DE00030B16FF0400021680861204600F020F813
:101DF00020680069C0F3401058B12068C068C0F383
:101E0000401030B16FF02000216808612046FFF7D4
:101E10006CFE10BD7047704710B50446034920683A
:101E2000884201D1FEF72EFE10BD000000080040E0
:101E30007047000010B504460CB9012010BDA06920
:101E4000002826D03A492068884207D039492068BE
:101E5000884203D038492068884200D104E040F22B
:101E6000111136A000F08EFCA06958B1A069B0F540
:101E7000807F07D0A069B0F5007F03D0A069B0F5DE
:101E8000407F00D117E04FF489712CA000F07AFC5C
:101E900011E027492068884207D0264920688842F7
:101EA00003D025492068884200D104E04FF48B71AB
:101EB00022A000F067FCA06818B1A068B0F5805FB0
:101EC00000D104E04FF48C711CA000F05BFC94F88E
:101ED000390028B9002084F83800204600F04CF87A
:101EE000242084F839002068C06820F4005021685C
:101EF000C860204600F0FCFA2068006920F4904099
:101F0000216808612068406920F02A002168486142
:101F10002068C06840F400502168C8600020E06379
:101F2000202084F8390084F83A00002086E7000079
:101F30000038014000440040004800402E2E2F444D
:101F40007269766572732F53544D33324631787807
:101F50005F48414C5F4472697665722F5372632FFC
:101F600073746D3332663178785F68616C5F756168
:101F700072742E630000000010B586B00446274935
:101F80002068884222D100BF2548806940F4804003
:101F9000234988610846806900F48040019000BFB1
:101FA00000BF48150290022003900320059002A96B
:101FB0001C48FEF7E3F94FF4806002900020039084
:101FC000049002A91748FEF7D9F924E016492068C1
:101FD000884220D100BF1248C06940F40030104947
:101FE000C8610846C06900F40030019000BF00BF1E
:101FF00004200290022003900320059002A90948C2
:10200000FEF7BCF90820029000200390049002A97A
:102010000448FEF7B3F906B010BD000000380140D7
:1020200000100240000801400044004000BF0120B1
:1020300000F0CDFBFBE700BFFEE701207047024642
:102040000120704702460120704701207047034677
:102050000120704703460120704701207047024667
:102060000120704702460120704701207047034657
:1020700001207047034601207047000000B585B07D
:10208000142206496846FEF7EBF80021684600F086
:10209000B7FB0349086005B000BD0000F834000834
:1020A0001400002000B585B000BF3D48806940F0B5
:1020B00010003B4988610846806900F010000090DC
:1020C00000BF00BF00BF0846806940F02000886163
:1020D0000846806900F02000009000BF00BF00BFEC
:1020E0000846806940F0040088610846806900F075
:1020F0000400009000BF00BF00BF0846806940F0A8
:10210000080088610846806900F00800009000BF60
:1021100000BF002247F621012248FEF72BFB0022D8
:102120004FF419412048FEF725FB4FF46040019021
:102130000320029001A91D48FEF720F9012001901B
:1021400000200290039001A91748FEF717F902201A
:1021500001900320029001A91348FEF70FF947F6FA
:1021600021000190012002900220049001A90D4855
:10217000FEF704F948F21E7001900320029001A9B5
:102180000848FEF7FBF84FF4194001900120029037
:102190000220049001A90448FEF7F0F805B000BD44
:1021A00000100240000C01400008014000100140F6
:1021B00010B50C480C4908600C48486000210A48DA
:1021C0008160C1604FF48041016100214161816102
:1021D000C1610162FEF710FB18B14C2104A000F0B0
:1021E000CFFA10BD00540040A40E0020A0860100CC
:1021F0002E2E2F5372632F6932632E63000000006E
:1022000010B50F480F4908604FF4827048600021F4
:102210000C488160C160016141614FF4802181619E
:102220000821C16100210162416281620A21C1620B
:10223000FFF7F2FA18B14F2103A000F0A1FA10BD88
:10224000003001400C0E00202E2E2F5372632F738E
:1022500070692E630000000010B50C480C4908603E
:102260004FF4E1304860002109488160C16001619C
:102270000C21416100218161C161FFF7DBFD18B1D3
:102280004D2104A000F07CFA10BD00000038014090
:10229000F80E00202E2E2F5372632F757361727407
:1022A0002E63000010B50C480C4908604FF4E13073
:1022B0004860002109488160C16001610C214161D1
:1022C00000218161C161FFF7B5FD18B1602104A053
:1022D00000F056FA10BD000000440040380F002006
:1022E0002E2E2F5372632F75736172742E6300004C
:1022F00000BFFEE77047000002480068C0F30220FC
:10230000704700000CED00E010B5002807DA0A075E
:10231000140E054A00F00F031B1FD45403E00A07F4
:10232000130E024A135410BD18ED00E000E400E063
:1023300008B508490968C9084FF47A72B1FBF2F18F
:102340004143009100BF00BF00994A1E009200293E
:10235000F9D108BD0C000020012070470246012081
:102360007047024601207047012070470346012054
:10237000704703460120704710B500F039FA10BDD0
:1023800010B590B0092006904FF4803007900020DF
:10239000089001200A900C9002200D90C1030E912C
:1023A0004FF4E0110F9106A8FEF72EFF18B1AB21F4
:1023B00014A000F0E5F90F20019002200290002007
:1023C00003904FF48060049000200590022101A842
:1023D000FEF7E4FC18B1B8210AA000F0D1F9FEF72D
:1023E000A1FE4FF47A71B0FBF1F42046FFF762FBD7
:1023F0000420FFF721FB00220F21501EFEF720FCD6
:1024000010B010BD2E2E2F5372632F6D61696E2E8A
:10241000630000001148006840F001000F490860A7
:10242000084640680E4908400C4948600846006864
:102430000C490840094908600846006820F48020DB
:1024400008600846406820F4FE0048604FF41F0012
:102450008860C8030449086070470000001002400B
:102460000000FFF8FFFFF6FE08ED00E010B502489F
:10247000FFF705FC10BD0000640E0020002202687A
:10248000184B984208D0B0F1804F05D0164B9842B7
:1024900002D0164B984203D122F070024B681A43C7
:1024A000104B984208D0B0F1804F05D00E4B9842A7
:1024B00002D00E4B984203D122F44072CB681A43EB
:1024C00022F080024B691A4302608B68C3620B687A
:1024D0008362044B984201D10B690363012343617A
:1024E00070470000002C014000040040000800403C
:1024F0002DE9F0410446002587496068884200D2F2
:1025000004E040F6A91185A000F03CF9E06818B19C
:10251000E068B0F5005F00D104E040F6AA117FA0AA
:1025200000F030F9206938B12069B0F5806F03D030
:102530002069B0F5C06F00D104E040F6AB1177A080
:1025400000F020F94FF6F3716069084010B9606936
:1025500000B104E040F6AC1170A000F013F920685F
:10256000006920F44050E16808432168086121694E
:10257000A06808436169084305432068C06841F2C8
:102580000C61884328432168C8602068406920F4B2
:102590004070A1690843216848616F4920688842FA
:1025A0005CD1FEF7D5FD00EBC00101EB00106168C6
:1025B0008900B0FBF1F6FEF7CBFD00EBC00101EBAB
:1025C000001061688900B0FBF1F06421B0FBF1F00C
:1025D00000EBC00101EB0010A6EB8000322101EB03
:1025E00000106421B0FBF1F000F0F006FEF7B0FD42
:1025F00000EBC00101EB001061688900B0FBF1F055
:102600006421B0FBF1F006EB0016FEF7A1FD00EB34
:10261000C00101EB001061688900B0FBF1F7FEF723
:1026200097FD00EBC00101EB001061688900B0FB71
:10263000F1F06421B0FBF1F000EBC00101EB001000
:10264000A7EB8000322101EB00106421B0FBF1F018
:1026500000F00F003044216888605BE0FEF768FD01
:1026600000EBC00101EB001061688900B0FBF1F6DE
:10267000FEF75EFD00EBC00101EB00106168890010
:10268000B0FBF1F06421B0FBF1F000EBC00101EB15
:102690000010A6EB8000322101EB00106421B0FB9A
:1026A000F1F000F0F006FEF743FD00EBC00101EB96
:1026B000001061688900B0FBF1F06421B0FBF1F01B
:1026C00006EB0016FEF734FD00EBC00101EB001035
:1026D00061688900B0FBF1F7FEF72AFD00EBC0014D
:1026E00001EB001061688900B0FBF1F06421B0FBE0
:1026F000F1F000EBC00101EB0010A7EB80003221EC
:1027000001EB00106421B0FBF1F000F00F00304449
:1027100021688860BDE8F08121AA44002E2E2F4454
:102720007269766572732F53544D3332463178781F
:102730005F48414C5F4472697665722F5372632F14
:1027400073746D3332663178785F68616C5F756180
:1027500072742E63000000000038014000BFFEE7E5
:102760000120704702460120704702460120704751
:10277000012070470346012070470346012070473F
:1027800000BFFEE7704708B5002000900A2502242C
:1027900095FBF4F000B20090FEF77CF9FFF7F0FD36
:1027A000FFF780FCFFF77EFDFFF72AFDFFF754FDE2
:1027B000FFF7FEFCFFF762FC00F015F800BFFEE734
:1027C00001460020842901D0CA1C1044704770B50E
:1027D000044625460DB1294600E00121084600F0D7
:1027E000EFFB002070BD10B500F018FC002010BDFC
:1027F00010B500F03FFD012801D000F0F1FC10BD44
:10280000FEB504460D46B4F90800FFF7D9FF0646A9
:1028100002A8CDE90060238A9AB22B46D4E90010C1
:1028200000F0F8FC012801D00020FEBD0298FCE772
:102830002DE9F04105460E461C4807681C48006813
:10284000001D00F0D1FA50B91948006890F82C101A
:102850000120884017490968814316480160681CB7
:1028600038B936B112480168091D134800F0FAFA68
:102870001AE07C190E4800684460BC4207D20C483C
:102880000168091D0D48006800F0D2FA0CE0084804
:102890000168091D0A48006800F0CAFA0948006882
:1028A000844201D207480460BDE8F081DC000020CA
:1028B000C8000020E0000020F8010020D000002027
:1028C000CC000020F800002010B5044600F0D6FA35
:1028D00023480068401C224908602248006840B92B
:1028E000204804600846006801280DD100F02AF94C
:1028F0000AE01D48006838B91A480068C06AE16AF1
:10290000884201D81748046018480068401C1749DD
:10291000086094F82C100120884015490968084384
:1029200013490860E16A01EB8101124A02EB810060
:10293000211D00F097FA00F0CBFA0B48006868B14F
:1029400008480068C06AE16A884207D24FF08050A8
:1029500009490860BFF34F8FBFF36F8F10BD0000B0
:10296000D8000020C8000020E4000020F40000206F
:10297000E00000201C01002004ED00E070B523E021
:1029800000F090FB1348006808B9012000E0002027
:10299000054600F023FDBDB900F070FA0D48C0688F
:1029A000C468201D00F020FA0B480068401E0A4948
:1029B00008600A480068401E0849086000F088FA6C
:1029C000204600F00DF800BF044800680028D7D169
:1029D00070BD0000E4010020D8000020D4000020D9
:1029E00010B50446206B00F091FA204600F08EFAF4
:1029F00010BD000030B54FF44063174800F00704E5
:102A00002CB1C01D20F00700134C041B1B1B0246F9
:102A1000124C22600024114D6C60D018083820F050
:102A200007000F4C206000240D4D2D686C600C4D8C
:102A30002D682C601146441A4C60094C24680C60C7
:102A4000084D4C682C60084D4C682C604FF00044D9
:102A5000064D2C6030BD00000C0200200401002057
:102A60000C0100201401002010010020180100209A
:102A700000BFFFF783FF064800680128F9D94FF02F
:102A8000805004490860BFF34F8FBFF36F8FF0E7AA
:102A90001C01002004ED00E02DE9FF5F81460F4698
:102AA0009246DDE90E6B109CAAF10100216B01EB4F
:102AB000800828F0070808F0070008B9012000E0A6
:102AC000002050B900BF502080F31188BFF34F8F12
:102AD000BFF36F8F00BF00BFFEE7002507E0795D01
:102AE00004F134004155785D00B902E06D1C102DF1
:102AF000F5D300BF002143200155072E00D3062641
:102B0000E66266640020A064201D00F08EF904F1E6
:102B1000180000F08AF92461C6F10700A061646220
:102B20000020E06484F8500049464046039A00F0D3
:102B300049F92060BBF1000F01D0CBF80040BDE89F
:102B4000FF9F000010B5002407E004EB84010F4A4A
:102B500002EB810000F05CF9641C072CF5D30C48F3
:102B600000F056F90B4800F053F90B4800F050F90B
:102B70000A4800F04DF90A4800F04AF904480949AA
:102B8000086004480849086010BD00001C010020CE
:102B9000A8010020BC010020D0010020E401002099
:102BA000F8010020CC000020D000002010B5014624
:102BB000164800E0006803688B42FBD30246436876
:102BC00013448B4204D143684C682344436001465C
:102BD0000A464B6813440468A34211D10C4C0368A5
:102BE0002468A34208D04B680468646823444B609F
:102BF00003681B680B6005E0054B1B680B6001E078
:102C000003680B60884200D0016010BD0401002001
:102C10000C0100200A490968096809B9012100E08E
:102C2000002121B14FF0FF31064A116006E004494E
:102C30000968C968C868034A4168116070470000A4
:102C4000CC000020F80000200E480068401C08B9A5
:102C5000012000E0002050B900BF502080F311880F
:102C6000BFF34F8FBFF36F8F00BF00BFFEE700BF02
:102C7000502080F31188BFF34F8FBFF36F8F00BFD9
:102C800000BFFEE7000000202DE9F04104464FF0B0
:102C9000000800F007FA4648006808B9FFF7AAFEE6
:102CA00044480068204000286BD1D4B1083404F0B7
:102CB0000700B0B104F00700C0F10800044404F0BC
:102CC000070008B9012000E0002050B900BF5020E3
:102CD00080F31188BFF34F8FBFF36F8F00BF00BF2A
:102CE000FEE7002C4DD034480068844249D8334E6A
:102CF0003046056801E02E462D686868A04202D281
:102D000028680028F7D12A480068854239D0306801
:102D100000F10808286830606868001B102819D97D
:102D20002F1907F0070008B9012000E0002050B972
:102D300000BF502080F31188BFF34F8FBFF36F8F18
:102D400000BF00BFFEE76868001B78606C60384613
:102D5000FFF72CFF184968680968081A16490860C7
:102D60000846006816490968884203D2124800687C
:102D7000134908600F4968680968084368600020C3
:102D8000286000F02BFB08F0070008B9012000E0E4
:102D9000002050B900BF502080F31188BFF34F8F3F
:102DA000BFF36F8F00BF00BFFEE74046BDE8F08174
:102DB0000C01002018010020100100200401002057
:102DC00014010020001F4FF080730360001F21F0EA
:102DD00001030360001F034B0360143802602038B6
:102DE00070470000492C000801460A69D1E901300A
:102DF0009860D1E9010358605068884201D1886821
:102E00005060002008611068401E10601068704714
:102E100000F1080141604FF0FF31816000F10801CD
:102E2000C1600161002101607047002101617047AC
:102E300010B502460B685C1C0CB9106907E002F182
:102E4000080000E04068446824689C42FAD944685D
:102E50004C604C68A160886041600A611468641C21
:102E6000146010BD42684A6093688B609368596033
:102E70009160086103685B1C0360704700BF5020CD
:102E800080F31188BFF34F8FBFF36F8F00BF0E48E1
:102E90000068401C0C49086008460068012812D1EF
:102EA0000A480068C0B208B9012000E0002050B90B
:102EB00000BF502080F31188BFF34F8FBFF36F8F97
:102EC00000BF00BFFEE770470000002004ED00E0F7
:102ED0000D48006850B900BF502080F31188BFF33F
:102EE0004F8FBFF36F8F00BF00BFFEE7064800683B
:102EF000401E054908600846006820B9002080F39C
:102F0000118800BF00BF70470000002070B5064662
:102F10003546002E3FD0083D2C461F4960680968A1
:102F2000084008B1012000E0002050B900BF502047
:102F300080F31188BFF34F8FBFF36F8F00BF00BFC7
:102F4000FEE7206808B9012000E0002050B900BF6A
:102F5000502080F31188BFF34F8FBFF36F8F00BFF6
:102F600000BFFEE70C4960680968084098B1206816
:102F700088B90949606809688843606000F092F880
:102F80000649606809680844044908602046FFF75C
:102F90000DFE00F023FA70BD180100201001002082
:102FA000064800684FF47A71B0FBF1F0401E4FF014
:102FB000E021486107200861704700000C000020F4
:102FC00070B504460025D4B11248006808B9012044
:102FD00000E0002050B900BF502080F31188BFF3FB
:102FE0004F8FBFF36F8F00BF00BFFEE700F05AF8AE
:102FF00000212046FFF71CFC00F0F0F905463DB922
:103000004FF0805004490860BFF34F8FBFF36F8FBC
:1030100070BD00000001002004ED00E01CB51A485E
:1030200000210B468022CDE9001018A1194800F0BC
:10303000F1F80446012C15D100BF502080F311880F
:10304000BFF34F8FBFF36F8F00BF4FF0FF301249B8
:10305000086001201149086000201149086000F053
:103060006FF810E0601C08B1012000E0002050B9AA
:1030700000BF502080F31188BFF34F8FBFF36F8FD5
:1030800000BF00BFFEE71CBDFC00002049444C45CA
:1030900000000000712A0008F8000020E400002071
:1030A000DC00002002480068401C014908607047AD
:1030B000000100201D48006818B101201C4908606B
:1030C00032E000201A4908601A480068B0FA80F01F
:1030D000C0F11F0101EB8100174A52F8200008B12E
:1030E000012000E0002050B900BF502080F311887B
:1030F000BFF34F8FBFF36F8F00BF00BFFEE701EB41
:1031000081020D4B03EB820042685268426000F17D
:1031100008024368934202D14268526842604268A2
:10312000D268064B1A6000BF704700000001002003
:10313000EC000020E00000201C010020C80000205E
:103140001CB52248014609780191FF210246117001
:103150000146097800919DF8001001F050011C4AC9
:10316000117007211B4A116009E01A490968491EBC
:10317000184A11609DF800104906090E00919DF84B
:10318000001001F080018029EFD01249096809027E
:10319000104A11601146098801F4E06111600B4A80
:1031A000019911700C48006840F470000A490860E9
:1031B0000846006840F070400860FFF7F1FE00200C
:1031C00006490860FCF7F2FF00201CBD00E400E0A7
:1031D000040000200800002020ED00E00000002096
:1031E00010B500BF502080F31188BFF34F8FBFF39D
:1031F0006F8F00BF00F04EF818B14FF080500449B7
:10320000086000BF002080F3118800BF10BD0000DF
:1032100004ED00E02DE9FF4F85B080468946174652
:10322000DDE912ABB800FFF72FFD064656B154207A
:10323000FFF72AFD04460CB1266304E03046FFF791
:1032400065FE00E000247CB10020CDE900ABCDE9B3
:1032500002403A4649464046089BFFF71DFC20467F
:10326000FFF732FB012501E04FF0FF35284609B09A
:10327000BDE8F08F0549096809B9012005E0044956
:10328000096809B9022000E000207047E40000202E
:10329000000100202DE9F0414FF00008444800688B
:1032A000002877D143480068451C4248056015BB9B
:1032B00041480068006808B9012000E0002050B9CA
:1032C00000BF502080F31188BFF34F8FBFF36F8F83
:1032D00000BF00BFFEE73848076838480068364935
:1032E00008603648076036480068401C344908606A
:1032F000FFF790FC00BF3348006885423CD300BF15
:103300002D480068006808B9012000E0002020B1C5
:103310004FF0FF302B4908602DE027480068C06857
:10332000C4686668B54202D22648066023E0201DC4
:10333000FFF75AFDA06A18B104F11800FFF754FD19
:1033400094F82C10012088401F49096808431E4941
:103350000860E16A01EB81011C4A02EB8100211D3A
:10336000FFF780FD1A49E06A0968C96A8842C7D335
:103370004FF00108C4E700BF15480068C06A00EBC1
:103380008000124951F82000012801D94FF00108AE
:1033900005E0FFE70F480068401C0E4908600E4832
:1033A000006808B14FF001084046BDE8F081000018
:1033B00000010020DC000020CC000020D000002014
:1033C000F0000020F8000020E00000201C01002098
:1033D000C8000020E8000020EC00002070B50024A8
:1033E00000263648006850B900BF502080F311888D
:1033F000BFF34F8FBFF36F8F00BF00BFFEE7FFF734
:103400003DFD2E480068401E2C49086008460068B3
:1034100000284FD12A48006800284BD024E02948D2
:10342000C068C46804F11800FFF7DEFC201DFFF738
:10343000DBFC94F82C1001208840234909680843DC
:1034400021490860E16A01EB8101204A02EB810019
:10345000211DFFF707FD1E49E06A0968C96A884215
:1034600002D301201B4908601648006808B90120F2
:1034700000E000200028D2D00CB1FFF7CBFB1648AB
:10348000056865B100BFFFF705FF10B101201149C4
:1034900008606D1E002DF6D100200F4908600D4810
:1034A000006838B1012630070C490860BFF34F8F20
:1034B000BFF36F8FFFF70CFD304670BD0001002099
:1034C000D8000020D0010020E00000201C010020D6
:1034D000C8000020EC000020E800002004ED00E01F
:1034E00000000000000000000102030406070809B4
:1034F00000000000010203040C3500082D20000824
:1035000000000000000000008000000064656661AB
:10351000756C745461736B0038350008000000202E
:103520001C01000028010008543600081C0100207E
:10353000BC14000044010008AAAAAAAA00000000C6
:103540000000000000A24A0400000000000000008B
:103550000000000000000000010000006D030008F2
:103560005D03000871030008770300086703000883
:1035700061030008020000006B2000085B200008C7
:103580006F20000875200008652000085F200008F3
:103590000300000069230008592300086D23000878
:1035A00073230008632300085D2300080400000063
:1035B0007127000861270008752700087B2700088D
:1035C0006B27000865270008050000004B03000872
:1035D0003B0300084F03000855030008450300089B
:1035E0003F030008060000004B2000083B200008B5
:1035F0004F20000855200008452000083F20000803
:1036000000000000000000000000000000000000BA
:1036100000000000000000000000000000000000AA
:10362000000000000000000000000000000000009A
:10363000000000000000000000000000000000008A
:10364000000000000000000000000000000000007A
:043650000000000076
:04000005080000ED02
:00000001FF
